:100000000C94EA000C946B060C9444060C941D06A8
:100010000C94F6050C9412010C9412010C94CF056B
:100020000C9412010C9412010C948A0E0C946A0B1D
:100030000C9412010C9412010C9412010C941201F4
:100040000C9412010C9492060C9412010C9412015F
:100050000C9412010C9412010C9412010C9485055D
:100060000C9412010C9412010C9412010C941201C4
:100070000C9412010C9412010C9412010C941201B4
:100080000C9412010C9412010C9412010C941201A4
:100090000C9412010C9412010C9412010C94120194
:1000A0000C9412010C9412010C9412016B016E015C
:1000B0005D01610167018F018F018F01720176017E
:1000C0007A01800184018F018A0100000000230071
:1000D000260029002C002F007274009274004894AE
:1000E0000078C40000000000240027002A002D0032
:1000F000300000000000250028002B002E003100F9
:1001000004040404040304050202020204030202BC
:10011000020206060606060604040202020404049D
:1001200008020110408040102040804080080204F6
:10013000018040201002011080102040402000006B
:10014000000200090F0000030401000C0000000081
:1001500000000000000000000000000000080B008C
:10016000020202010009040000010202000005244D
:1001700000100105240101010424020605240600E3
:10018000010705810310004009040100020A000074
:10019000000705020240000007058302400000043A
:1001A00003090412010002EF0201409A23118000AA
:1001B000010102030141646166727569740043695B
:1001C000726375697420506C617967726F756E64C3
:1001D0000000BF1111241FBECFEFDAE0DEBFCDBF9C
:1001E00011E0A0E0B1E0E6E5F6E202C005900D9274
:1001F000A83CB107D9F723E0A8ECB1E001C01D92FB
:10020000A83BB207E1F710E0CAEED0E004C02197A6
:10021000FE010E941513C93ED107C9F70E94300F95
:100220000C9429130C940000CF93DF931F92CDB749
:10023000DEB76983DC01ED91FC910280F381E02D52
:1002400041E050E0BE016F5F7F4F09950F90DF9155
:10025000CF91089583E08093E9008091F200882394
:1002600019F08AE38093E8000895FC018485958560
:1002700097FD0BC09FB7F89482E08093E9008091CE
:10028000F2009FBF90E0019608959FB7F89482E036
:100290008093E9008091F2009FBF90E00895089557
:1002A00080E090E0089590E0FC013197EF30F10597
:1002B000B0F5EA5AFF4F0C941513809180008F77A8
:1002C00003C0809180008F7D80938000089580918D
:1002D0008000877FF9CF84B58F7702C084B58F7D8A
:1002E00084BD0895809190008F7707C08091900021
:1002F0008F7D03C080919000877F80939000089548
:100300008091C0008F7703C08091C0008F7D809363
:10031000C00008958091C200877F8093C200089535
:100320003FB7F8948091D8019091D901A091DA015A
:10033000B091DB0126B5A89B05C02F3F19F00196AF
:10034000A11DB11D3FBFBA2FA92F982F8827820F5B
:10035000911DA11DB11DBC01CD0143E0660F771FAA
:10036000881F991F4A95D1F7089508958BEF089536
:100370009FB7F8948091C901882319F08150809328
:10038000C9018091C901811105C08CB58F7B8CBDDD
:100390001092C8019FBF08958CB58F778CBD0895CA
:1003A0008CB580688CBD08956EBD00000DB407FE4D
:1003B000FDCF8EB508959CB5282F23709C7F922B7E
:1003C0009CBD2DB582FB992790F9822F8E7F892BBA
:1003D0008DBD0895FC01738362830895FC017783CA
:1003E00066830895FC0175836483089508950895D4
:1003F00080E00895FC0181850895FC0180850895C1
:10040000FC0187810895FC0186810895FC014095D7
:1004100095854923642B65870895FC0164870895B9
:10042000FC0163870895FC0162870895FC016483E1
:100430000895FC016583089580E00895FC01228100
:10044000338123303105D1F381E00895CF93DF93D9
:10045000EC01E881F9810280F381E02DCE0109955C
:100460008823B9F3DF91CF91089581E008950E9428
:10047000650E90E00895CF93DF931F92CDB7DEB75E
:10048000FC018485958597FD05C02FEF3FEF3587EB
:1004900024870BC0CE0101960E94E30D019719F449
:1004A000898190E002C08FEF9FEF0F90DF91CF9195
:1004B00008950F931F93CF93DF931F92CDB7DEB7AD
:1004C0008C01FC018485958597FF0EC0CE010196B5
:1004D0000E94E30D019719F4298130E002C02FEF4B
:1004E0003FEFF80135872487F801848595850F90C3
:1004F000DF91CF911F910F9108950E941B13CF920E
:10050000DF92EF92FF920F931F93CF93DF93EC0153
:100510007B018A01E881F9810280F381E02D099550
:10052000D82E882339F1E114F104E1F00115110509
:10053000C9F0CFB6F8942D8D30E023503109F80181
:10054000808190E0821793071CF09D8D94509083DA
:10055000F801408150E0BE016E5D7F4FC7010E94EF
:100560002013CFBE8FB7F894FE01E35EFE4F1082DA
:100570001D8E8FBF8D2DDF91CF911F910F91FF9019
:10058000EF90DF90CF9008951F93CF93DF93282FA4
:1005900030E0F901E25CFE4F8491F901E15EFE4F2B
:1005A000D491F901E050FF4FC491CC23C9F0162F2C
:1005B00081110E945301EC2FF0E0EE0FFF1FEE506F
:1005C000FF4FA591B4918FB7F894111105C09C917C
:1005D000ED2FE095E92302C0EC91ED2BEC938FBF5A
:1005E000DF91CF911F910895CF93DF93FC0122817A
:1005F00033812230310569F0EC01668D848D0E94D3
:10060000C40260E08B8D0E94C40282E090E09B8374
:100610008A83DF91CF9108950F931F93CF93DF9338
:10062000EC01162F0FB7F89460E08A8D0E94C40287
:10063000888D998DDC01ED91FC91612F6F77019090
:10064000F081E02D0995888D998DDC01ED91FC916B
:100650000190F081E02D60E00995182F61E08A8D0E
:100660000E94C4020FBF812FDF91CF911F910F9184
:100670000895CF93DF9390E0FC01E15EFE4F24915B
:10068000FC01E050FF4F8491882361F190E0880FD6
:10069000991FFC01EC51FF4FC591D491FC01EE5024
:1006A000FF4FA591B491611109C09FB7F89488815B
:1006B000209582238883EC912E230BC0623061F455
:1006C0009FB7F8943881822F809583238883EC919B
:1006D0002E2B2C939FBF06C08FB7F894E8812E2B4A
:1006E00028838FBFDF91CF910895CF93DF93FC01D3
:1006F000268137812115310549F02130310541F03E
:100700002230310539F02330310531F020E005C0C9
:1007100024E003C028E001C02CE09CB5937F922B1D
:100720009CBD84819581019709F04AC08CB5806297
:100730008CBD8281938101978430910528F4FC015E
:10074000E65EFE4FC08101C0C5E08C2F0E94DB0138
:10075000DFB7F8948091C901811127C0E1E1F1E090
:100760009491E0E3F1E02491E92FF0E0EE0FFF1F18
:10077000EC51FF4FA591B491EC91E22321F461E09B
:1007800081E10E94C40261E081E10E9439038CB5DD
:1007900080618CBD8CB580648CBD61E08FE00E946F
:1007A000390361E080E10E9439038091C9018F5FC4
:1007B0008093C901DFBF8C2FDF91CF910C94DB01B7
:1007C0009CB59F7D9CBDB5CF8F929F92AF92BF92FB
:1007D000CF92DF92EF92FF926B017C010E94900119
:1007E0004B015C01C114D104E104F104F1F00E9459
:1007F0009001DC01CB0188199909AA09BB09883E3F
:100800009340A105B10570F321E0C21AD108E108B7
:10081000F10888EE880E83E0981EA11CB11CC1145B
:10082000D104E104F10419F7DDCFFF90EF90DF90E0
:10083000CF90BF90AF909F908F9008958F929F928E
:10084000AF92BF92CF92DF92EF92FF920F931F93DE
:10085000CF93DF935C016B017A0180910B018823B8
:1008600009F459C08091EF01882309F454C08091A4
:10087000EC0180FF05C08091E00082608093E00081
:10088000E70110E00AEF83E0882E9AE3992E209783
:10089000D1F10E94650E811109C00150E1F161E0C2
:1008A00070E080E090E00E94E403F1CF282F30E078
:1008B000C217D3070CF48C2F4FB7F8948092E9003D
:1008C0009091E80095FF1DC0282F30E0C21BD30B8C
:1008D000F601982F915020F081918093F100FACF8A
:1008E000C20ED31E112319F09092E80009C0809126
:1008F000E80085FD06C09092E80011E0209709F01D
:1009000010E04FBFC4CF1111C4CF84E68093ED0136
:100910001E141F0444F081E090E0F501938382836C
:1009200080E090E001C0C701DF91CF911F910F914E
:10093000FF90EF90DF90CF90BF90AF909F908F90FF
:100940000895CF93DF93EC01888D998DDC01ED91B3
:10095000FC910680F781E02D099561E08A8D0E9467
:10096000390361E08A8D0E94C40264E670E080E091
:1009700090E00E94E40381E0DF91CF9108952FB7CA
:10098000F8946091D4017091D5018091D601909135
:10099000D7012FBF08958F929F92AF92BF92CF92AF
:1009A000DF92EF92FF92CF93DF93FC012689378984
:1009B000232B11F481E038C0EC010E94BF046B01CD
:1009C0007C0189E0882E912CA12CB12CE881F98141
:1009D0000488F589E02DCE010995882359F30E94FA
:1009E000BF04AB01BC014C195D096E097F098E89FA
:1009F0009F89A0E0B0E084179507A607B70798F095
:100A00000E946612A50194010E94D4129B01AC01C0
:100A10002F5F3F4F4F4F5F4FA4E6B0E00E94F312AD
:100A20000E94E403D3CF80E0DF91CF91FF90EF905D
:100A3000DF90CF90BF90AF909F908F9008958F924E
:100A40009F92AF92BF92CF92DF92EF92FF92CF939D
:100A5000DF93EC016B010E94BF044B015C01E12CB0
:100A6000F12C0E94BF04DC01CB0188199909AA0965
:100A7000BB098C159D05AE05BF0530F48A819B81AD
:100A8000039779F381E001C080E0DF91CF91FF907F
:100A9000EF90DF90CF90BF90AF909F908F90089590
:100AA0008F929F92AF92BF92CF92DF92EF92FF927E
:100AB000CF93DF93EC016B010E94BF044B015C01FB
:100AC000E12CF12C0E94BF04DC01CB0188199909AB
:100AD000AA09BB098C159D05AE05BF0550F4E88138
:100AE000F9810280F381E02DCE010995882351F32D
:100AF00001C080E0DF91CF91FF90EF90DF90CF9029
:100B0000BF90AF909F908F9008951F920F920FB655
:100B10000F9211242F933F938F939F93AF93BF9383
:100B20008091D4019091D501A091D601B091D701C7
:100B30003091D30126E0230F2D3720F40296A11D1A
:100B4000B11D05C029E8230F0396A11DB11D2093F7
:100B5000D3018093D4019093D501A093D601B09393
:100B6000D7018091D8019091D901A091DA01B0917B
:100B7000DB010196A11DB11D8093D8019093D9018D
:100B8000A093DA01B093DB01BF91AF919F918F9158
:100B90003F912F910F900FBE0F901F9018951F92AD
:100BA0000F920FB60F9211242F933F934F935F93A1
:100BB0006F937F938F939F93AF93BF93EF93FF9325
:100BC000E0911401F09115010995FF91EF91BF910A
:100BD000AF919F918F917F916F915F914F913F91D5
:100BE0002F910F900FBE0F901F9018951F920F928C
:100BF0000FB60F9211242F933F934F935F936F93F0
:100C00007F938F939F93AF93BF93EF93FF93E09165
:100C10001201F09113010995FF91EF91BF91AF91EE
:100C20009F918F917F916F915F914F913F912F9104
:100C30000F900FBE0F901F9018951F920F920FB636
:100C40000F9211242F933F934F935F936F937F9352
:100C50008F939F93AF93BF93EF93FF93E091100116
:100C6000F09111010995FF91EF91BF91AF919F9183
:100C70008F917F916F915F914F913F912F910F9045
:100C80000FBE0F901F9018951F920F920FB60F92E4
:100C900011242F933F934F935F936F937F938F9381
:100CA0009F93AF93BF93EF93FF93E0910E01F09169
:100CB0000F010995FF91EF91BF91AF919F918F9196
:100CC0007F916F915F914F913F912F910F900FBE48
:100CD0000F901F9018951F920F920FB60F9211242C
:100CE0002F933F934F935F936F937F938F939F9334
:100CF000AF93BF93EF93FF93E0910C01F0910D013F
:100D00000995FF91EF91BF91AF919F918F917F9145
:100D10006F915F914F913F912F910F900FBE0F9068
:100D20001F9018951F920F920FB60F921124CF9219
:100D3000DF92EF92FF920F931F932F933F934F9366
:100D40005F936F937F938F939F93AF93BF93CF9353
:100D5000DF93EF93FF93C091CA01D091CB018A81B9
:100D60009B81049709F0CAC02A8D30E0F901E25C4A
:100D7000FE4F8491F901E15EFE4F0491F901E050CC
:100D8000FF4F1491112379F081110E945301E12F3B
:100D9000F0E0EE0FFF1FE653FF4FA591B491EC91E9
:100DA000E02381E009F480E081709D8D892719F0AE
:100DB0009AA19F5F9AA399A1891771F09BA1903581
:100DC00018F02DE130E002C02BE030E09BA1290FAC
:100DD000311D2BA389A303C08BA18C5E8BA38BA198
:100DE000803A08F4DDC08DA19EA1969587959EA3BB
:100DF0008DA38AA1853028F08DA19EA198609EA325
:100E00008DA38BA1805A8BA31AA28CA1882309F4ED
:100E100068C08FA18F5F8FA38C3008F4C1C08DA1F3
:100E20009EA1982F9F73892F86958695887028E0BC
:100E3000280F821749F0E82FF0E0E25EFE4F308184
:100E4000931719F08F5FF5CF80E020E1829FC001FA
:100E500011242DA13EA196E0369527959A95E1F7AC
:100E6000422F3695279536952795287038E0320F12
:100E7000231749F0E22FF0E0E25EFE4F5081451764
:100E800019F02F5FF5CF20E0822BAE0144595F4F60
:100E9000FA019081DE01A559BF4F9923B1F0FA0103
:100EA000908121E0290F20839E01290F311DF90136
:100EB00080A7FA0190818C91981788F01CA281E09C
:100EC0008F8FCE010E94F4020AC08C939C919730C0
:100ED00008F460C09C91943408F05CC0E0CF1FA27D
:100EE0005FC08DA19EA188339B4009F059C081E06D
:100EF0008CA31FA2C459DF4F188252C08A819B81E4
:100F0000039709F04DC08E0101591F4FF8018081F0
:100F100091E0980F9083811137C07E01FDE6EF0EBE
:100F2000F11CF7018081EF56FF4F9081891748F03F
:100F3000CE010E94F4028B899C8901969C8B8B8B3D
:100F400023C0FE01E80FF11DE059FF4F608170E002
:100F50006E01FEE6CF0ED11CF601808191E0980F64
:100F6000908302C0759567958A95E2F7617077273F
:100F70008B8D0E94C402F6018081863028F0108299
:100F8000F70180818F5F8083F8018081883040F095
:100F9000108206C01CA28F8598890196988B8F8736
:100FA000FF91EF91DF91CF91BF91AF919F918F9181
:100FB0007F916F915F914F913F912F911F910F9171
:100FC000FF90EF90DF90CF900F900FBE0F901F908B
:100FD0001895EF92FF920F931F93CF93DF931F9279
:100FE000CDB7DEB77C01162F0FB7F89460E0DC01B7
:100FF0005A968C9149830E94C402F701808D918D8D
:10100000DC01ED91FC91612F60680190F081E02D91
:101010000995182FF701808D918DDC01ED91FC91E0
:101020000190F081E02D4981642F099561E0F7017D
:10103000828D0E94C4020FBF812F0F90DF91CF914C
:101040001F910F91FF90EF9008950F931F93CF93EF
:101050008C01C62F68312CF465305CF0653114F4D6
:1010600009C0C7E147E06DE4C8010E94E907C35029
:1010700006C0C5E044E06DE4C8010E94E9074BEFFB
:101080004C0F406869E0C801CF911F910F910C94FB
:10109000E907CF93DF93EC018A819B81059771F07B
:1010A00047E061E0CE010E94E90740E860E4CE013C
:1010B0000E94E90785E090E09B838A838A819B8177
:1010C0000597E1F38D89DF91CF910895CF93DF9359
:1010D000FC01228133812130310549F0EC0140E0EF
:1010E00061E00E94E90781E090E09B838A8381E0D0
:1010F000DF91CF910895CF93DF93FC01228133815B
:101100002230310549F0EC0141E061E00E94E9073D
:1011100082E090E09B838A83DF91CF910895BF9214
:10112000CF92DF92EF92FF920F931F93CF93DF93B3
:101130004C3F10F0E12C6FC0142F072FF62EEC015E
:10114000E881F9810484F585E02D0995CE010E949E
:101150007B08E881F9810288F389E02DCE010995A9
:10116000E82E882339F340E06DE0CE010E94E907C4
:101170004A8560E0CE010E94E9074B8560E0CE0120
:101180000E94E9074C8560E0CE010E94E9074D8589
:1011900060E0CE010E94E907BFB6F89460E08A8D56
:1011A0000E94C402888D998DDC01ED91FC91019023
:1011B000F081E02D60E80995CF2CD02E012F015051
:1011C00068F0888D998DF60161916F01DC01ED91D8
:1011D000FC910190F081E02D0995F1CF61E08A8DBD
:1011E0000E94C402BFBE44E0410F62E2CE010E94F1
:1011F000E9078A819B81039771F043E061E0CE01AA
:101200000E94E90740E460E4CE010E94E90783E020
:1012100090E09B838A838E2DDF91CF911F910F9158
:10122000FF90EF90DF90CF90BF900895CF93DF9322
:10123000FC012281338123303105B9F0EC01828138
:101240009381049771F045E061E0CF010E94E907C6
:1012500040E060E4CE010E94E90784E090E09B83D7
:101260008A83C35EDE4F888101C080E0DF91CF9129
:101270000895DF92EF92FF920F931F93CF93DF9326
:10128000EC0162E10E940C032A813B81243031058C
:1012900021F4982F907A09F068C02A813B8124308C
:1012A000310509F073C086FF71C063E1CE010E9471
:1012B0000C03F82E60E1CE010E940C03482F6DE074
:1012C000CE010E94E907DFB6F89460E08A8D0E94A3
:1012D000C402888D998DDC01ED91FC910190F08123
:1012E000E02D60E009958E01025E1F4FEF2CE00EAD
:1012F000E01671F0888D998DDC01ED91FC910190E3
:10130000F081E02D60E00995F80181938F01F0CF25
:1013100061E08A8D0E94C402DFBEFD8E4FEF62E164
:10132000CE010E94E9076AE1CE010E940C038958B0
:101330008E878D8DFE01E35EFE4F843090F08E8DA2
:101340008E838F8D8F8388A1888789A189878D81DE
:10135000811129C09E818C81981729F18E818F3F40
:1013600011F18081882331F02FC08F8598890196F3
:10137000988B8F874FEF62E1CE01DF91CF911F9164
:101380000F91FF90EF90DF900C94E9072A813B8149
:101390002330310581F483FF0EC08B899C8901962F
:1013A0009C8B8B8B11C089899A8901969A8B898B2A
:1013B00081E08083D6CF2A813B8125303105D1F66B
:1013C00082FFD8CF81708D8BCE010E947B08D2CF57
:1013D0008091D1019091D201009711F00C943909BC
:1013E00008958091CF019091D001009711F00C9455
:1013F000390908958091CD019091CE01009711F0A7
:101400000C9439090895FF920F931F93CF93DF93A4
:1014100000D000D0CDB7DEB78C010E94A104F82E19
:10142000811102C0F12C99C0F801938D992351F0DC
:10143000913051F0923051F0933051F0973091F754
:1014400024E007C022E005C023E003C021E001C082
:1014500020E040E861E0C8012C830E94E9076AE0CF
:1014600070E080E090E00E94E40361E0C8010E9427
:101470000C032C818038B1F660E0F801838D2C8359
:101480000E943903F801848D2C818F3F49F48091AB
:10149000CC01843038F691E0980F9093CC01848F82
:1014A000F801948DE92FF0E0EE0FFF1FE353FE4F9C
:1014B00011830083911103C06AEF79E00AC0913073
:1014C00019F461EF79E005C0923009F0ABCF68EE16
:1014D00079E0822F0E94AC0D40E06EE0C8010E94CE
:1014E000E90740E06FE0C8010E94E907C8010E94D7
:1014F0007B0843E050E068ED70E0CE0101960E9469
:10150000741249816DE1C8010E94E9074A816EE1C8
:10151000C8010E94E9074B8166E2C8010E94E90701
:1015200040E060E2C8010E94E90748E061E2C801CA
:101530000E94E9074CE666E0C8010E94E90740E81E
:1015400067E0C8010E94E90740E068E0C8010E9426
:10155000E9076DE0C8010E9425088F2D0F900F90BC
:101560000F900F90DF91CF911F910F91FF900895F1
:101570004091E8015091E9012091E6013091E701A5
:1015800042175307B4F49091E8009570E1F39091FD
:10159000E80092FD19C08093F1008091E8019091DC
:1015A000E90101968F739927892B19F48EEF8093A7
:1015B000E8008091E8019091E90101969093E9019A
:1015C0008093E80181E0089580E00895DF92EF9232
:1015D000FF920F931F93CF93DF93D82E8A017B0145
:1015E000E40EF51EEB01CE15DF0571F0D7FE03C04A
:1015F000FE01849101C088810E94B80A2196811160
:10160000F2CF8FEF9FEF01C0C801DF91CF911F9103
:101610000F91FF90EF90DF900895CF92DF92EF92BD
:10162000FF920F931F93CF93DF936C017A018B018D
:10163000C0E0D0E0CE15DF0589F0D8016D918D01B5
:10164000D601ED91FC910190F081E02DC601099544
:10165000892B11F47E0102C02196ECCFC701DF91E6
:10166000CF911F910F91FF90EF90DF90CF90089551
:101670000F931F93CF93DF931F92CDB7DEB782E016
:10168000898342E450E06DE571E080E80E94E60A5B
:101690000E94760EDC0112960D911C911397011594
:1016A000110569F0D801ED91FC910280F381E02DE4
:1016B000BE016F5F7F4FC801099597FF07C0898101
:1016C0000F90DF91CF911F910F910895F801008540
:1016D0001185E5CF1F920F920FB60F921124CF9272
:1016E000DF92EF92FF920F931F932F933F934F93AD
:1016F0005F936F937F938F939F93AF93BF93EF937A
:10170000FF93CF93DF93CDB7DEB76C97DEBFCDBF2E
:101710001092E9008091E80083FFFFC1FE017596F9
:10172000DE2ECF2E88E08E0F8E1729F09091F100DB
:1017300090833196F9CF84E68093EE0182EF809317
:10174000E8008D8987FF05C09091E80090FFFCCFED
:1017500003C09EEF9093E800982F907609F0C5C0E3
:101760009E892F89188D91110CC0803829F48091A1
:10177000EB018093F10002C01092F1001092F10091
:101780004FC1422F50E0512B913051F4811148C18B
:101790004130510509F044C18091EB018D7F0BC0B0
:1017A000933061F481113CC14130510509F038C1D9
:1017B0008091EB0182608093EB0132C1953041F45E
:1017C0008091E80080FFFCCF20682093E30028C1CF
:1017D000963009F05EC0EB8CFC8C1092E900109200
:1017E000E9011092E801123091F51092E701109290
:1017F000E6010E94380B99E0BE016F5F7F4FDB016D
:10180000E92F1D92EA95E9F799831A8391E09E8367
:1018100090EA98879AEF99872091E8013091E90141
:10182000275F3F4F3C832B838D831092E9001092FA
:10183000E9011092E801F092E701E092E60149E047
:1018400050E080E00E94E60A0E94380BE9C0F09266
:10185000E701E092E6010E94760EDC011296ED901F
:10186000FC901397E114F10409F4C7C0D701ED917E
:10187000FC910480F581E02D6D2D7C2DC70109952B
:10188000009719F00CF0CCC0CFC0F701E084F184D0
:10189000E9CF973009F4C8C0983021F481E08093F3
:1018A000F100BEC0993009F0BBC0837009F0BCC024
:1018B000EFE2F1E081E021E036E39081992361F0ED
:1018C0008093E9002093EB0091919093EC0030938A
:1018D000ED008F5F873089F78EE78093EA001092E2
:1018E000EA008F898093EF019BC08B8D9C8D1092B5
:1018F000E9001092E9011092E8019093E7018093CA
:10190000E601898D81115FC08E899D89913A59F4D4
:10191000813209F089C047E050E064E071E080E086
:101920000E94E60A7DC0913209F07EC0833289F4BC
:10193000888D90E0982F88272F89822BA0E0B0E037
:101940008093000190930101A0930201B0930301E1
:1019500067C08032B1F48091E80082FFFCCFE4E000
:10196000F1E087E08E0F8E1729F09091F1009083BF
:101970003196F9CF84E68093EE018BEF8093E800F7
:1019800006C0823209F04CC08F8980930B01809190
:10199000EA01882319F0EEEFFAE002C0E0E0F8E097
:1019A0008091040190910501A0910601B091070179
:1019B000803B9440A105B10509F07AC080910B01EC
:1019C00080FF92C075C00E94760EDC0112960D91C8
:1019D0001C9113970115110539F1D801ED91FC9176
:1019E0000190F081E02D6D2D7C2DC80109958111AC
:1019F00017C0F80100851185EDCF113009F44EC0F4
:101A0000133091F48F89882309F445C0823081F422
:101A100040E862E18EEB91E00E94F30E882321F012
:101A20008EEF8093E80079C081E28093EB0075C06F
:101A3000813029F440E868E085EB91E0EDCF833018
:101A400099F70E94760EDC011296ED90FC901397A8
:101A50008E010F5F1F4F6801E114F10479F0D70187
:101A6000ED91FC910680F781E02DB801C701099541
:101A7000080F111DF701E084F184EECFD8011C920C
:101A8000F60101900020E9F73197BF016C197D093B
:101A900040E0C601C1CF6FE971E002C063EA71E0C6
:101AA0006115710509F2FB01449150E080E838CFDF
:101AB0000FB6F894A89580916000886180936000CB
:101AC000109260000FBEA895EE3F2AE0F20739F0B1
:101AD0008091FE0A9091FF0A91838083A1CF10929A
:101AE000FF0A1092FE0A9CCFEE3F8AE0F80731F021
:101AF000808191819093FF0A8093FE0A87E797E7A0
:101B0000918380839BE088E10FB6F894A895809339
:101B100060000FBE9093600083CF6C960FB6F89470
:101B2000DEBF0FBECDBFDF91CF91FF91EF91BF918F
:101B3000AF919F918F917F916F915F914F913F9165
:101B40002F911F910F91FF90EF90DF90CF900F900A
:101B50000FBE0F901F9018958530A0F5E82FF0E08C
:101B6000EE0FFF1FE45FFE4F718360838230B1F0A0
:101B700018F4813061F004C08330B9F08430E1F0B2
:101B800080916900836080936900E89A089580914C
:101B900069008C6080936900E99A089580916900DA
:101BA000806380936900EA9A089580916900806C4F
:101BB00080936900EB9A089580916A008063809316
:101BC0006A00EE9A0895FC018091EF01811103C033
:101BD0008FEF9FEF08959FB7F89482E08093E9001C
:101BE0002091F20030E01216130614F421E030E0E8
:101BF0002115310551F084E68093EE018091F100CA
:101C000080838091F200882319F09FBFC901089555
:101C10008BE68093E800F9CFBC01009791F0FC01BE
:101C200001900020E9F73197AF01481B590BE09173
:101C3000F001F091F1010280F381E02D80EF91E05D
:101C4000099480E090E008958F929F92AF92BF92A6
:101C50000F931F93CF93DF93CDB7DEB7A1970FB646
:101C6000F894DEBF0FBECDBF19A2423008F44AE09F
:101C70008E010F5D1F4F842E912CA12CB12CA5013C
:101C800094010E94B212E62FB901CA010150110954
:101C9000EA3014F4E05D01C0E95CD801EC93232B39
:101CA000242B252B61F7C8010E940C0EA1960FB6BC
:101CB000F894DEBF0FBECDBFDF91CF911F910F9182
:101CC000BF90AF909F908F9008952FB7F89483E0C6
:101CD0008093E9009091E800892F807295FF04C0FD
:101CE0009091F20080E4891B2FBF08958091A80392
:101CF00081110DC082E08093A40384E08093A5034A
:101D00001092A7031092A60381E08093A80384EAAF
:101D100093E008951F920F920FB60F9211248F93A4
:101D20009F938091E1009091E100937F9093E10077
:101D300083FF0FC01092E90091E09093EB001092A6
:101D4000EC0092E39093ED001092EF0198E09093F5
:101D5000F00082FF1CC093E09093E9009091F200A4
:101D6000992319F09AE39093E8009091ED0199235B
:101D700029F09091ED0191509093ED019091EE0139
:101D8000992329F09091EE0191509093EE0184FFF8
:101D900010C08091E2008E7E81608093E20080918D
:101DA000E1008F7E8093E1008091EC018E7E806166
:101DB00011C080FF11C08091E2008E7E806180930F
:101DC000E2008091E1008E7E8093E1008091EC0141
:101DD0008E7E81608093EC019F918F910F900FBE5A
:101DE0000F901F901895CF92DF92EF92FF920F9372
:101DF0001F93CF93DF931F92CDB7DEB7182F062F17
:101E0000E42E862F880F8E5F99830E94B80A83E0A4
:101E10000E94B80AF12EC12E9981D92E8C2D8F19CE
:101E2000801798F4F601E7FE02C0849101C080811A
:101E30000E94B80A182F80E00E94B80A8123FFEFA1
:101E4000CF1ADF0A8111EACF01C081E00F90DF9144
:101E5000CF911F910F91FF90EF90DF90CF90089559
:101E6000CF93DF93CDB7DEB764970FB6F894DEBF9C
:101E70000FBECDBF789484B5826084BD84B5816087
:101E800084BD85B5826085BD85B5816085BD809145
:101E90006E00816080936E001092810080918100BD
:101EA00082608093810080918100816080938100B5
:101EB0008091800081608093800080919100826099
:101EC0008093910080919100816080939100809136
:101ED00090008160809390008091C1008460809325
:101EE000C1008091C10082608093C1008091C100D7
:101EF00081608093C1008091C30081608093C300A2
:101F00008091C00082608093C0008091C200816097
:101F10008093C20080917A00846080937A008091DF
:101F20007A00826080937A0080917A008E7F80931D
:101F30007A0080917A00806880937A001092EF0195
:101F40001092EB011092EC018091D7008160809398
:101F5000D70080EA8093D80089B58F7E89BD89B586
:101F6000826089BD09B400FEFDCF61E070E080E0D1
:101F700090E00E94E4038091D8008F7C8061809380
:101F8000D8008091E000807F8093E0008091E100A4
:101F90008E7E8093E1008DE08093E200EEEFFFE71C
:101FA000859194918B3F9C4D19F481E08093EA01D7
:101FB0001092820210928302109284021092850283
:101FC0001092420210924302109244021092450273
:101FD0000E94BF046B017C012B013C0138EB430ED6
:101FE0003BE0531E611C711C0E94BF046C157D05F3
:101FF0008E059F0528F04616570668067906A0F755
:1020000068EE73E080E090E00E94E4038FEF9FEFC2
:102010009093FD018093FC010E94BF0460934202F3
:102020007093430280934402909345028BE891E0C1
:102030000E940C0E0E94BF046B017C012B013C012D
:102040004AE0440E511C611C711C0E94BF046C15B7
:102050007D058E059F0528F0461657066806790609
:10206000A0F781E08093560261E084E00E9439038A
:1020700061E084E00E94C40264E670E080E090E0E9
:102080000E94E40360E084E00E94C4026AE070E021
:1020900080E090E00E94E40361E084E00E94C402DA
:1020A0006AE070E080E090E00E94E40386E892E05D
:1020B0000E94030A811101C0FFCF44EE66E086E86A
:1020C00092E00E94E90740EC67E086E892E00E9417
:1020D000E90740E068E086E892E00E94E90767E1EE
:1020E00086E892E00E94250884E1382E00E010E0A6
:1020F00094EF492E55245394612C712C0E94BF04F7
:10210000672B682B692B41F40E94BF046230710574
:102110008105910508F4ECC00E94BF046093E201C0
:102120007093E3018093E4019093E501C090DE0198
:10213000D090DF01E090E001F090E1016C157D05A9
:102140008E059F0540F46093DE017093DF0180935C
:10215000E0019093E101C090DE01D090DF01E090BA
:10216000E001F090E1019B01AC012C193D094E0901
:102170005F0969017A013AEFC316D104E104F10461
:1021800008F4B6C06093DE017093DF018093E00134
:102190009093E10140924E0250924F0260925002A1
:1021A00070925102109252021092530210925402F5
:1021B000109255028091460290914702A0914802E8
:1021C000B091490280934A0290934B02A0934C0233
:1021D000B0934D020E94BF04609346027093470281
:1021E00080934802909349020E94BF046093420288
:1021F0007093430280934402909345020E94BF046F
:102200006B017C018CE991E00E940C0E4AE061E0D8
:1022100070E080E090E00E94240E83EA91E00E944A
:102220000C0E4AE0C701B6010E94240E85EA91E037
:102230000E940C0E8091460290914702A0914802A4
:10224000B0914902A7019601281B390B4A0B5B0B81
:10225000CA01B9014AE00E94240E85EA91E00E9479
:102260000C0E8091460290914702A0914802B091D5
:102270004902C0904A02D0904B02E0904C02F0908C
:102280004D02BC01CD016C197D098E099F094AE000
:102290000E94240E87EA91E00E940C0E0E94BF0467
:1022A0004AE00E94240E89EA91E00E940C0E80EB25
:1022B00091E00E940C0E0E94BF044B015C016B0177
:1022C0007C0132E0C30ED11CE11CF11C0E94BF0452
:1022D000681579058A059B0508F04AC00E94BF046D
:1022E000609346027093470280934802909349029C
:1022F000E3EBF1E0DE011196832D01900D928A95BA
:10230000E1F78091DC019091DD019C012F5F3F4F4F
:102310003093DD012093DC014AE0BE01625F7F4F14
:102320000E947D121C8A6AE070E080E090E00E94CA
:10233000E40344E1BE016F5F7F4F86E892E00E94B4
:102340008F086AE070E080E090E00E94E40386E895
:1023500092E00E941E0268EE73E080E090E00E942E
:10236000E4030115110509F4C9CE0E940000C6CE90
:10237000C616D706E806F90608F0A8CFAFCFE0EFFB
:10238000F1E01382128288EE93E0A0E0B0E0848353
:102390009583A683B78389E391E0918380838FEF50
:1023A0009FEF95878487E0E4F2E01682178210861B
:1023B0001186128613861486158616861786108A4D
:1023C000118A128A138A148A158AA0EBB3E0139635
:1023D0001C921E92129715961C921E921497179695
:1023E0001C921E9216978BE491E011969C938E930B
:1023F000E6E8F2E0138212828FEF8483828783877C
:1024000014861586108A1786128A118A148A138AEE
:10241000178A168AB18FA08F98E0928F2FE531E04E
:10242000318320831092A30397E0938F848F0895C4
:102430008F929F92AF92BF92CF92DF92EF92FF92D4
:10244000CF93DF93EC01688179818A819B8161154B
:1024500071058105910521F464E279ED8BE597E042
:102460002DE133EF41E050E00E94D41249015A01BE
:102470009B01AC01A7EAB1E40E94F3126B017C015D
:10248000ACEEB4EFA50194010E940113DC01CB0175
:102490008C0D9D1DAE1DBF1DB7FF03C00197A10987
:1024A000B04888839983AA83BB83BC01CD019F7701
:1024B000DF91CF91FF90EF90DF90CF90BF90AF90E2
:1024C0009F908F9008950E941812089586E191E0E0
:1024D0000E9418120895609316017093170180935B
:1024E0001801909319010895FB01DC0102C00590C9
:1024F0000D9241505040D8F70895BB274A3031F42F
:10250000992322F4BDE2909581959F4F0C948912F6
:10251000BB27FB015527AA27880F991FAA1FA417BD
:1025200010F0A41B83955051B9F7A05DAA3308F0B1
:10253000A95DA193009779F7B111B1931192CB01E5
:102540000C94A212DC01FC01672F71917723E1F753
:10255000329704C07C916D9370836291AE17BF0770
:10256000C8F30895A1E21A2EAA1BBB1BFD010DC0E2
:10257000AA1FBB1FEE1FFF1FA217B307E407F50733
:1025800020F0A21BB30BE40BF50B661F771F881F0F
:10259000991F1A9469F760957095809590959B01A5
:1025A000AC01BD01CF010895052E97FB1EF40094E8
:1025B0000E94EB1257FD07D00E94B21207FC03D015
:1025C0004EF40C94EB1250954095309521953F4F69
:1025D0004F4F5F4F089590958095709561957F4F0F
:1025E0008F4F9F4F08950E940613A59F900DB49F93
:1025F000900DA49F800D911D11240895B7FF0C9498
:10260000F3120E94F312821B930B0895A29FB00154
:10261000B39FC001A39F700D811D1124911DB29F16
:10262000700D811D1124911D0895EE0FFF1F05905F
:10263000F491E02D099481E090E0F8940C94291332
:10264000FB01DC0102C001900D9241505040D8F7CF
:062650000895F894FFCF8D
:10265600FFFFFFFF00E1000000000000B501B5012B
:10266600B501B501B50101000000000404040D0E1A
:10267600131516191A1C232526292A2C323400C1B3
:1026860080810000000000000014011E0437022AA9
:102696000135013B02590200000000D401D001CCF3
:1026A600017503B801F201EE01EA01000000000322
:1026B6000A16097F028F08B60126021E021F055060
:1026C60005CB0449081602130210020D0206021970
:1026D6000203020002FD01FA016608564D445056F7
:1026E6005F317C315F564D4450560A00564D44507A
:1026F600455F003A323A007C005F564D4450450033
:102706000D0A0048656C6C6F20576F726C6420234D
:082716002020202020200000FB
:00000001FF
