:100000000C94EA000C947E040C9457040C94300475
:100010000C9409040C9412010C9412010C94E20348
:100020000C9412010C9412010C942E0E0C94970E49
:100030000C9412010C9412010C9412010C941201F4
:100040000C9412010C94A5040C9412010C9412014E
:100050000C9412010C9412010C9412010C9498034C
:100060000C9412010C9412010C9412010C941201C4
:100070000C9412010C9412010C9412010C941201B4
:100080000C9412010C9412010C9412010C941201A4
:100090000C9412010C9412010C9412010C94120194
:1000A0000C9412010C9412010C941201990B9C0BEC
:1000B0008B0B8F0B950BBD0BBD0BBD0BA00BA40BBE
:1000C000A80BAE0BB20BBD0BB80B00000000230059
:1000D000260029002C002F007274009274004894AE
:1000E0000078C40000000000240027002A002D0032
:1000F000300000000000250028002B002E003100F9
:1001000004040404040304050202020204030202BC
:10011000020206060606060604040202020404049D
:1001200008020110408040102040804080080204F6
:10013000018040201002011080102040402000006B
:10014000000200090F0000030401000C0000000081
:1001500000000000000000000000000000080B008C
:10016000020202010009040000010202000005244D
:1001700000100105240101010424020605240600E3
:10018000010705810310004009040100020A000074
:10019000000705020240000007058302400000043A
:1001A00003090412010002EF0201409A23118000AA
:1001B000010102030141646166727569740043695B
:1001C000726375697420506C617967726F756E64C3
:1001D0000000A61211241FBECFEFDAE0DEBFCDBFB4
:1001E00013E0A0E0B1E0E4E2F8E202C005900D9275
:1001F000A230B107D9F724E0A2E0B3E001C01D921C
:10020000A23FB207E1F710E0CAEED0E004C02197A8
:10021000FE010E94FC13C93ED107C9F70E94D91004
:100220000C9410140C94000008958BEF08959FB760
:10023000F89480910D03882319F0815080930D0369
:1002400080910D03811105C08CB58F7B8CBD109200
:100250000C039FBF08958CB58F778CBD08958CB526
:1002600080688CBD08956EBD00000DB407FEFDCF03
:100270008EB508959CB5282F23709C7F922B9CBD32
:100280002DB582FB992790F9822F8E7F892B8DBD0A
:100290000895FC01738362830895FC01778366836C
:1002A0000895FC017583648308950895089580E09E
:1002B0000895FC0181850895FC0180850895FC0165
:1002C00087810895FC0186810895FC0140959585FC
:1002D0004923642B65870895FC0164870895FC0118
:1002E00063870895FC0162870895FC016483089583
:1002F000FC016583089580E00895FC01228133812B
:1003000023303105D1F381E00895CF93DF93EC01E1
:10031000E881F9810280F381E02DCE0109958823DF
:10032000B9F3DF91CF91089581E00895CF93DF93E2
:10033000FC01228133812230310569F0EC01668DA8
:10034000848D0E94BE0B60E08B8D0E94BE0B82E00C
:1003500090E09B838A83DF91CF9108950F931F9341
:10036000CF93DF93EC01162F0FB7F89460E08A8DDE
:100370000E94BE0B888D998DDC01ED91FC91612F5F
:100380006F770190F081E02D0995888D998DDC01C2
:10039000ED91FC910190F081E02D60E00995182F1E
:1003A00061E08A8D0E94BE0B0FBF812FDF91CF913C
:1003B0001F910F910895CF92DF92EF92FF920F93CA
:1003C0001F93CF93DF93EC017B018A01E881F981D0
:1003D0000280F381E02D0995D82E882339F1E114AC
:1003E000F104E1F001151105C9F0CFB6F8942D8D97
:1003F00030E023503109F801808190E082179307A3
:100400001CF09D8D94509083F801408150E0BE0116
:100410006E5D7F4FC7010E940714CFBE8FB7F8945F
:10042000FE01E35EFE4F10821D8E8FBF8D2DDF918A
:10043000CF911F910F91FF90EF90DF90CF90089593
:10044000CF93DF93FC01268137812115310549F0D7
:100450002130310541F02230310539F023303105AA
:1004600031F020E005C024E003C028E001C02CE00A
:100470009CB5937F922B9CBD84819581019709F057
:100480004AC08CB580628CBD828193810197843093
:10049000910528F4FC01E65EFE4FC08101C0C5E075
:1004A0008C2F0E943A01DFB7F89480910D038111DF
:1004B00027C0E1E1F1E09491E0E3F1E02491E92F3C
:1004C000F0E0EE0FFF1FEC51FF4FA591B491EC91BE
:1004D000E22321F461E081E10E94BE0B61E081E151
:1004E0000E94EE0B8CB580618CBD8CB580648CBD98
:1004F00061E08FE00E94EE0B61E080E10E94EE0B74
:1005000080910D038F5F80930D03DFBF8C2FDF91F0
:10051000CF910C943A019CB59F7D9CBDB5CFCF93F4
:10052000DF93EC01888D998DDC01ED91FC910680C3
:10053000F781E02D099561E08A8D0E94EE0B61E064
:100540008A8D0E94BE0B64E670E080E090E00E941D
:100550002A0C81E0DF91CF9108953FB7F894809104
:100560001C0390911D03A0911E03B0911F0326B59B
:10057000A89B05C02F3F19F00196A11DB11D3FBFDB
:10058000BA2FA92F982F8827820F911DA11DB11D69
:10059000BC01CD0143E0660F771F881F991F4A9564
:1005A000D1F708952FB7F89460911803709119034B
:1005B00080911A0390911B032FBF08958F929F92F1
:1005C000AF92BF92CF92DF92EF92FF92CF93DF93E1
:1005D000FC0126893789232B11F481E038C0EC0116
:1005E0000E94D2026B017C0189E0882E912CA12C03
:1005F000B12CE881F9810488F589E02DCE010995B7
:10060000882359F30E94D202AB01BC014C195D0949
:100610006E097F098E899F89A0E0B0E08417950755
:10062000A607B70798F00E944D13A50194010E94F8
:10063000BB139B01AC012F5F3F4F4F4F5F4FA4E6B1
:10064000B0E00E94DA130E942A0CD3CF80E0DF9141
:10065000CF91FF90EF90DF90CF90BF90AF909F90A1
:100660008F9008958F929F92AF92BF92CF92DF9218
:10067000EF92FF92CF93DF93EC016B010E94D202C5
:100680004B015C01E12CF12C0E94D202DC01CB0178
:1006900088199909AA09BB098C159D05AE05BF05E6
:1006A00030F48A819B81039779F381E001C080E077
:1006B000DF91CF91FF90EF90DF90CF90BF90AF9000
:1006C0009F908F9008958F929F92AF92BF92CF92FA
:1006D000DF92EF92FF92CF93DF93EC016B010E94C8
:1006E000D2024B015C01E12CF12C0E94D202DC0110
:1006F000CB0188199909AA09BB098C159D05AE057E
:10070000BF0550F4E881F9810280F381E02DCE012C
:100710000995882351F301C080E0DF91CF91FF90CC
:10072000EF90DF90CF90BF90AF909F908F90089503
:100730001F920F920FB60F9211242F933F938F9316
:100740009F93AF93BF938091180390911903A09149
:100750001A03B0911B033091170326E0230F2D37A6
:1007600020F40296A11DB11D05C029E8230F0396B0
:10077000A11DB11D209317038093180390931903B3
:10078000A0931A03B0931B0380911C0390911D0347
:10079000A0911E03B0911F030196A11DB11D80936E
:1007A0001C0390931D03A0931E03B0931F03BF91DE
:1007B000AF919F918F913F912F910F900FBE0F900E
:1007C0001F9018951F920F920FB60F9211242F931E
:1007D0003F934F935F936F937F938F939F93AF93C9
:1007E000BF93EF93FF93E0911401F09115010995E8
:1007F000FF91EF91BF91AF919F918F917F916F91F9
:100800005F914F913F912F910F900FBE0F901F90CE
:1008100018951F920F920FB60F9211242F933F93AA
:100820004F935F936F937F938F939F93AF93BF93F8
:10083000EF93FF93E0911201F09113010995FF915D
:10084000EF91BF91AF919F918F917F916F915F9148
:100850004F913F912F910F900FBE0F901F901895C1
:100860001F920F920FB60F9211242F933F934F9325
:100870005F936F937F938F939F93AF93BF93EF9308
:10088000FF93E0911001F09111010995FF91EF9113
:10089000BF91AF919F918F917F916F915F914F9198
:1008A0003F912F910F900FBE0F901F9018951F92A0
:1008B0000F920FB60F9211242F933F934F935F9394
:1008C0006F937F938F939F93AF93BF93EF93FF9318
:1008D000E0910E01F0910F010995FF91EF91BF9109
:1008E000AF919F918F917F916F915F914F913F91C8
:1008F0002F910F900FBE0F901F9018951F920F927F
:100900000FB60F9211242F933F934F935F936F93E2
:100910007F938F939F93AF93BF93EF93FF93E09158
:100920000C01F0910D010995FF91EF91BF91AF91ED
:100930009F918F917F916F915F914F913F912F91F7
:100940000F900FBE0F901F9018951F920F920FB629
:100950000F921124CF92DF92EF92FF920F931F9389
:100960002F933F934F935F936F937F938F939F93B7
:10097000AF93BF93CF93DF93EF93FF93C0910E0399
:10098000D0910F038A819B81049709F0CAC02A8DF8
:1009900030E0F901E25CFE4F8491F901E15EFE4F27
:1009A0000491F901E050FF4F1491112379F0811166
:1009B0000E94810BE12FF0E0EE0FFF1FE653FF4F87
:1009C000A591B491EC91E02381E009F480E081707D
:1009D0009D8D892719F09AA19F5F9AA399A18917E4
:1009E00071F09BA1903518F02DE130E002C02BE0B2
:1009F00030E09BA1290F311D2BA389A303C08BA13C
:100A00008C5E8BA38BA1803A08F4DDC08DA19EA1E2
:100A1000969587959EA38DA38AA1853028F08DA1F8
:100A20009EA198609EA38DA38BA1805A8BA31AA22E
:100A30008CA1882309F468C08FA18F5F8FA38C30AD
:100A400008F4C1C08DA19EA1982F9F73892F869510
:100A50008695887028E0280F821749F0E82FF0E08B
:100A6000E25EFE4F3081931719F08F5FF5CF80E083
:100A700020E1829FC00111242DA13EA196E0369570
:100A800027959A95E1F7422F369527953695279524
:100A9000287038E0320F231749F0E22FF0E0E25ED1
:100AA000FE4F5081451719F02F5FF5CF20E0822BC4
:100AB000AE0144595F4FFA019081DE01A559BF4F45
:100AC0009923B1F0FA01908121E0290F20839E0142
:100AD000290F311DF90180A7FA0190818C91981797
:100AE00088F01CA281E08F8FCE010E9496010AC07F
:100AF0008C939C91973008F460C09C91943408F0DA
:100B00005CC0E0CF1FA25FC08DA19EA188339B4037
:100B100009F059C081E08CA31FA2C459DF4F18828D
:100B200052C08A819B81039709F04DC08E01015903
:100B30001F4FF801808191E0980F9083811137C099
:100B40007E01FDE6EF0EF11CF7018081EF56FF4FAD
:100B50009081891748F0CE010E9496018B899C896B
:100B600001969C8B8B8B23C0FE01E80FF11DE05991
:100B7000FF4F608170E06E01FEE6CF0ED11CF601E2
:100B8000808191E0980F908302C0759567958A9552
:100B9000E2F7617077278B8D0E94BE0BF601808192
:100BA000863028F01082F70180818F5F8083F80102
:100BB0008081883040F0108206C01CA28F85988901
:100BC0000196988B8F87FF91EF91DF91CF91BF9125
:100BD000AF919F918F917F916F915F914F913F91D5
:100BE0002F911F910F91FF90EF90DF90CF900F907A
:100BF0000FBE0F901F901895EF92FF920F931F93C7
:100C0000CF93DF931F92CDB7DEB77C01162F0FB7BE
:100C1000F89460E0DC015A968C9149830E94BE0BE7
:100C2000F701808D918DDC01ED91FC91612F606861
:100C30000190F081E02D0995182FF701808D918D9D
:100C4000DC01ED91FC910190F081E02D4981642F50
:100C5000099561E0F701828D0E94BE0B0FBF812FC5
:100C60000F90DF91CF911F910F91FF90EF9008951A
:100C70000F931F93CF938C01C62F68312CF46530EE
:100C80005CF0653114F409C0C7E147E06DE4C801C8
:100C90000E94FC05C35006C0C5E044E06DE4C801F5
:100CA0000E94FC054BEF4C0F406869E0C801CF91F2
:100CB0001F910F910C94FC05CF93DF93EC018A8177
:100CC0009B81059771F047E061E0CE010E94FC0531
:100CD00040E860E4CE010E94FC0585E090E09B8343
:100CE0008A838A819B810597E1F38D89DF91CF917A
:100CF0000895CF93DF93FC012281338121303105A8
:100D000049F0EC0140E061E00E94FC0581E090E0E8
:100D10009B838A8381E0DF91CF910895CF93DF9306
:100D2000FC01228133812230310549F0EC0141E0A0
:100D300061E00E94FC0582E090E09B838A83DF9162
:100D4000CF910895BF92CF92DF92EF92FF920F93CF
:100D50001F93CF93DF934C3F10F0E12C6FC0142F03
:100D6000072FF62EEC01E881F9810484F585E02D4A
:100D70000995CE010E948E06E881F9810288F389E7
:100D8000E02DCE010995E82E882339F340E06DE08F
:100D9000CE010E94FC054A8560E0CE010E94FC0560
:100DA0004B8560E0CE010E94FC054C8560E0CE01E1
:100DB0000E94FC054D8560E0CE010E94FC05BFB697
:100DC000F89460E08A8D0E94BE0B888D998DDC01BD
:100DD000ED91FC910190F081E02D60E80995CF2C18
:100DE000D02E012F015068F0888D998DF601619108
:100DF0006F01DC01ED91FC910190F081E02D0995EE
:100E0000F1CF61E08A8D0E94BE0BBFBE44E0410F6E
:100E100062E2CE010E94FC058A819B81039771F0FA
:100E200043E061E0CE010E94FC0540E460E4CE01B5
:100E30000E94FC0583E090E09B838A838E2DDF91E6
:100E4000CF911F910F91FF90EF90DF90CF90BF90C7
:100E50000895CF93DF93FC01228133812330310544
:100E6000B9F0EC0182819381049771F045E061E073
:100E7000CF010E94FC0540E060E4CE010E94FC0529
:100E800084E090E09B838A83C35EDE4F888101C04B
:100E900080E0DF91CF910895DF92EF92FF920F9360
:100EA0001F93CF93DF93EC0162E10E94AE012A8190
:100EB0003B812430310521F4982F907A09F068C0E5
:100EC0002A813B812430310509F073C086FF71C04F
:100ED00063E1CE010E94AE01F82E60E1CE010E94D6
:100EE000AE01482F6DE0CE010E94FC05DFB6F894FC
:100EF00060E08A8D0E94BE0B888D998DDC01ED919A
:100F0000FC910190F081E02D60E009958E01025E78
:100F10001F4FEF2CE00EE01671F0888D998DDC01EB
:100F2000ED91FC910190F081E02D60E00995F801D0
:100F300081938F01F0CF61E08A8D0E94BE0BDFBEEE
:100F4000FD8E4FEF62E1CE010E94FC056AE1CE0109
:100F50000E94AE0189588E878D8DFE01E35EFE4FA3
:100F6000843090F08E8D8E838F8D8F8388A18887BB
:100F700089A189878D81811129C09E818C819817D3
:100F800029F18E818F3F11F18081882331F02FC0AC
:100F90008F8598890196988B8F874FEF62E1CE01FC
:100FA000DF91CF911F910F91FF90EF90DF900C9404
:100FB000FC052A813B812330310581F483FF0EC07B
:100FC0008B899C8901969C8B8B8B11C089899A890E
:100FD00001969A8B898B81E08083D6CF2A813B81D1
:100FE00025303105D1F682FFD8CF81708D8BCE01AF
:100FF0000E948E06D2CF8091150390911603009720
:1010000011F00C944C0708958091130390911403F0
:10101000009711F00C944C07089580911103909162
:101020001203009711F00C944C070895FF920F9350
:101030001F93CF93DF9300D000D0CDB7DEB78C01E4
:101040000E948F02F82E811102C0F12C99C0F80184
:10105000938D992351F0913051F0923051F09330AB
:1010600051F0973091F724E007C022E005C023E05B
:1010700003C021E001C020E040E861E0C8012C830A
:101080000E94FC056AE070E080E090E00E942A0C7B
:1010900061E0C8010E94AE012C818038B1F660E0A9
:1010A000F801838D2C830E94EE0BF801848D2C8136
:1010B0008F3F49F480911003843038F691E0980F07
:1010C00090931003848FF801948DE92FF0E0EE0FD8
:1010D000FF1FEF5EFC4F11830083911103C06DE091
:1010E00078E00AC0913019F464E078E005C09230ED
:1010F00009F0ABCF6BEF77E0822F0E94BD0D40E08F
:101100006EE0C8010E94FC0540E06FE0C8010E944B
:10111000FC05C8010E948E0643E050E068ED70E0D7
:10112000CE0101960E945B1349816DE1C8010E94C6
:10113000FC054A816EE1C8010E94FC054B8166E214
:10114000C8010E94FC0540E060E2C8010E94FC0565
:1011500048E061E2C8010E94FC054CE666E0C80177
:101160000E94FC0540E867E0C8010E94FC0540E0E1
:1011700068E0C8010E94FC056DE0C8010E943806C5
:101180008F2D0F900F900F900F90DF91CF911F91A7
:101190000F91FF9008958F929F92AF92BF92CF923E
:1011A000DF92EF92FF92CF93DF93CDB7DEB7C051BE
:1011B000D1400FB6F894DEBF0FBECDBF0E94D20261
:1011C000672B682B692B41F40E94D20262307105B3
:1011D0008105910508F4ECC00E94D20260930803D7
:1011E0007093090380930A0390930B03C090040348
:1011F000D0900503E0900603F09007036C157D0581
:101200008E059F0540F4609304037093050380935B
:10121000060390930703C0900403D0900503E09069
:101220000603F09007039B01AC012C193D094E0900
:101230005F0969017A013AEFC316D104E104F104B0
:1012400008F4B6C06093040370930503809306030B
:101250009093070384EF91E0A0E0B0E080938703D0
:1012600090938803A0938903B0938A0310928B0311
:1012700010928C0310928D0310928E0380917F0345
:1012800090918003A0918103B091820380938303A6
:1012900090938403A0938503B09386030E94D202A7
:1012A00060937F0370938003809381039093820304
:1012B0000E94D20260937B0370937C0380937D0332
:1012C00090937E030E94D2026B017C018BE891E037
:1012D0000E94AD0D4AE061E070E080E090E00E9485
:1012E0006C0D82E991E00E94AD0D4AE0C701B601A4
:1012F0000E946C0D84E991E00E94AD0D80917F0306
:1013000090918003A0918103B0918203A70196017F
:10131000281B390B4A0B5B0BCA01B9014AE00E943A
:101320006C0D84E991E00E94AD0D80917F03909156
:101330008003A0918103B0918203C0908303D09079
:101340008403E0908503F0908603BC01CD016C1905
:101350007D098E099F094AE00E946C0D86E991E0A3
:101360000E94AD0D0E94D2024AE00E946C0D88E9F5
:1013700091E00E94AF0D0E94D2026B017C014B01F3
:101380005C0132E0830E911CA11CB11C0E94D202B0
:101390006C157D058E059F0508F0BAC00E94D2022B
:1013A00060937F0370938003809381039093820303
:1013B00068EE73E080E090E00E942A0C8FE991E0F3
:1013C0000E94AF0D84E1E5E4F2E0DE01A450BF4FDE
:1013D00001900D928A95E1F78091020390910303A9
:1013E0009C012F5F3F4F30930303209302036CEF68
:1013F00070E06C0F7D1F635F7F4F4AE00E946413B3
:101400008FEA91E00E94AD0DCE0184509F4F0E9463
:10141000AF0DC15FDE4F1882CF50D14088EB91E015
:101420000E94AF0D6AE070E080E090E00E942A0C1C
:1014300044E1BE0164507F4F8FEB93E00E94A2060F
:1014400083EC91E00E94AF0D6AE070E080E090E0F4
:101450000E942A0C8FEB93E00E947D018BEFC05F0E
:10146000DE4F8883C051D14085EE91E00E94AF0DE0
:1014700068EE73E08FEB93E00E946303882309F426
:1014800042C0AE01405F5E4FBE016F5F7F4F8FEB8A
:1014900093E00E94DB01882399F18AEF91E00E949A
:1014A000AD0DCE0101960E94AF0D86E092E00E9444
:1014B000AD0DC090CD030C2C000CDD08EE08FF082C
:1014C000F7FE14C0E0912903F0912A030190F08106
:1014D000E02D6DE289E293E0099566277727CB013D
:1014E0006C197D098E099F094AE003C04AE0C701D3
:1014F000B6010E946C0D8DE092E00E94540D0FC069
:1015000080E192E002C08FE192E00E94AF0D07C03F
:1015100086169706A806B90608F038CF3FCFC05FF9
:10152000DE4F0FB6F894DEBF0FBECDBFDF91CF9177
:10153000FF90EF90DF90CF90BF90AF909F908F90F3
:101540000895CF92DF92EF92FF920F931F93CF9364
:10155000DF936C017A018B01C0E0D0E0CE15DF058E
:1015600089F0D8016D918D01D601ED91FC9101902A
:10157000F081E02DC6010995892B11F47E0102C08E
:101580002196ECCFC701DF91CF911F910F91FF9072
:10159000EF90DF90CF900895CF93DF931F92CDB758
:1015A000DEB76983DC01ED91FC910280F381E02DCF
:1015B00041E050E0BE016F5F7F4F09950F90DF91D2
:1015C000CF91089583E08093E9008091F200882311
:1015D00019F08AE38093E8000895FC0184859585DD
:1015E00097FD0BC09FB7F89482E08093E90080914B
:1015F000F2009FBF90E0019608959FB7F89482E0B3
:101600008093E9008091F2009FBF90E008950895D3
:1016100080E090E008950E941D0E90E00895CF9321
:10162000DF931F92CDB7DEB7FC018485958597FDCA
:1016300005C02FEF3FEF358724870BC0CE01019601
:101640000E94F40D019719F4898190E002C08FEF98
:101650009FEF0F90DF91CF9108950F931F93CF933A
:10166000DF931F92CDB7DEB78C01FC018485958591
:1016700097FF0EC0CE0101960E94F40D019719F458
:10168000298130E002C02FEF3FEFF8013587248732
:10169000F801848595850F90DF91CF911F910F916F
:1016A00008950E9402144091220350912303209137
:1016B00020033091210342175307B4F49091E800BE
:1016C0009570E1F39091E80092FD19C08093F100CC
:1016D000809122039091230301968F739927892B80
:1016E00019F48EEF8093E8008091220390912303F8
:1016F0000196909323038093220381E0089580E074
:10170000089590E0FC013197EF30F105B0F5EA5A09
:10171000FF4F0C94FC13809180008F7703C0809161
:1017200080008F7D80938000089580918000877F66
:10173000F9CF84B58F7702C084B58F7D84BD0895BD
:10174000809190008F7707C0809190008F7D03C0BB
:1017500080919000877F8093900008958091C000D1
:101760008F7703C08091C0008F7D8093C000089563
:101770008091C200877F8093C20008951F93CF930A
:10178000DF93282F30E0F901E25CFE4F8491F901EC
:10179000E15EFE4FD491F901E050FF4FC491CC239C
:1017A000C9F0162F81110E94810BEC2FF0E0EE0F93
:1017B000FF1FEE50FF4FA591B4918FB7F894111110
:1017C00005C09C91ED2FE095E92302C0EC91ED2B33
:1017D000EC938FBFDF91CF911F910895CF93DF934B
:1017E00090E0FC01E15EFE4F2491FC01E050FF4FD0
:1017F0008491882361F190E0880F991FFC01EC51DE
:10180000FF4FC591D491FC01EE50FF4FA591B491CB
:10181000611109C09FB7F89488812095822388833D
:10182000EC912E230BC0623061F49FB7F89438819D
:10183000822F809583238883EC912E2B2C939FBF3E
:1018400006C08FB7F894E8812E2B28838FBFDF91D5
:10185000CF9108958F929F92AF92BF92CF92DF92D5
:10186000EF92FF926B017C010E94AD024B015C0183
:10187000C114D104E104F104F1F00E94AD02DC01D5
:10188000CB0188199909AA09BB09883E9340A10593
:10189000B10570F321E0C21AD108E108F10888EE21
:1018A000880E83E0981EA11CB11CC114D104E10470
:1018B000F10419F7DDCFFF90EF90DF90CF90BF904C
:1018C000AF909F908F9008958F929F92AF92BF920A
:1018D000CF92DF92EF92FF920F931F93CF93DF93FC
:1018E0005C016B017A0180910B01882309F459C0D6
:1018F00080912803882309F454C08091260380FF37
:1019000005C08091E00082608093E000E70110E074
:101910000AEF83E0882E9AE3992E2097D1F10E9456
:101920001D0E811109C00150E1F161E070E080E01D
:1019300090E00E942A0CF1CF282F30E0C217D30785
:101940000CF48C2F4FB7F8948092E9009091E80046
:1019500095FF1DC0282F30E0C21BD30BF601982F36
:10196000915020F081918093F100FACFC20ED31EE6
:10197000112319F09092E80009C08091E80085FDDC
:1019800006C09092E80011E0209709F010E04FBFE8
:10199000C4CF1111C4CF84E6809327031E141F0403
:1019A00044F081E090E0F5019383828380E090E051
:1019B00001C0C701DF91CF911F910F91FF90EF9070
:1019C000DF90CF90BF90AF909F908F9008958091BF
:1019D000E10481110DC082E08093DD0484E08093F6
:1019E000DE041092E0041092DF0481E08093E104B1
:1019F0008DED94E00895DF92EF92FF920F931F9385
:101A0000CF93DF93D82E8A017B01E40EF51EEB0104
:101A1000CE15DF0571F0D7FE03C0FE01849101C031
:101A200088810E94530B21968111F2CF8FEF9FEF97
:101A300001C0C801DF91CF911F910F91FF90EF90EE
:101A4000DF9008950F931F93CF93DF931F92CDB72D
:101A5000DEB782E0898342E450E06DE571E080E822
:101A60000E94FB0C0E94E70CDC0112960D911C9168
:101A700013970115110569F0D801ED91FC910280D1
:101A8000F381E02DBE016F5F7F4FC801099597FF7D
:101A900007C089810F90DF91CF911F910F91089519
:101AA000F80100851185E5CFBC01009791F0FC019C
:101AB00001900020E9F73197AF01481B590BE091E5
:101AC0002903F0912A030280F381E02D89E293E05B
:101AD000099480E090E008958F929F92AF92BF9218
:101AE0000F931F93CF93DF93CDB7DEB7A1970FB6B8
:101AF000F894DEBF0FBECDBF19A2423008F44AE011
:101B00008E010F5D1F4F842E912CA12CB12CA501AD
:101B100094010E949913E62FB901CA0101501109DD
:101B2000EA3014F4E05D01C0E95CD801EC93232BAA
:101B3000242B252B61F7C8010E94540DA1960FB6E6
:101B4000F894DEBF0FBECDBFDF91CF911F910F91F3
:101B5000BF90AF909F908F9008950C94540DCF93A9
:101B6000DF930E94540DEC018DE092E00E94540D31
:101B70008C0F9D1FDF91CF9108958530A0F5E82F40
:101B8000F0E0EE0FFF1FE45FFE4F71836083823051
:101B9000B1F018F4813061F004C08330B9F08430C2
:101BA000E1F080916900836080936900E89A08956C
:101BB000809169008C6080936900E99A0895809112
:101BC0006900806380936900EA9A089580916900B2
:101BD000806C80936900EB9A089580916A0080631D
:101BE00080936A00EE9A0895FC0180912803811188
:101BF00003C08FEF9FEF08959FB7F89482E0809322
:101C0000E9002091F20030E01216130614F421E0EE
:101C100030E02115310551F084E68093E90480918C
:101C2000F10080838091F200882319F09FBFC901E1
:101C300008958BE68093E800F9CF2FB7F89483E0FE
:101C40008093E9009091E800892F807295FF04C08D
:101C50009091F20080E4891B2FBF08951F920F928C
:101C60000FB60F9211248F939F938091E100909172
:101C7000E100937F9093E10083FF0FC01092E90091
:101C800091E09093EB001092EC0092E39093ED00C2
:101C90001092280398E09093F00082FF1CC093E01C
:101CA0009093E9009091F200992319F09AE39093B0
:101CB000E80090912703992329F0909127039150F0
:101CC000909327039091E904992329F09091E904D6
:101CD00091509093E90484FF10C08091E2008E7EC1
:101CE00081608093E2008091E1008F7E8093E1002B
:101CF000809126038E7E806111C080FF11C080918B
:101D0000E2008E7E80618093E2008091E1008E7E11
:101D10008093E100809126038E7E8160809326036C
:101D20009F918F910F900FBE0F901F9018951F924B
:101D30000F920FB60F921124CF92DF92EF92FF9283
:101D40000F931F932F933F934F935F936F937F93C3
:101D50008F939F93AF93BF93EF93FF93CF93DF93B3
:101D6000CDB7DEB76C97DEBFCDBF1092E900809192
:101D7000E80083FFFFC1FE017596DE2ECF2E88E0BE
:101D80008E0F8E1729F09091F10090833196F9CF44
:101D900084E68093E90482EF8093E8008D8987FFD1
:101DA00005C09091E80090FFFCCF03C09EEF909398
:101DB000E800982F907609F0C5C09E892F89188D6C
:101DC00091110CC0803829F4809125038093F10093
:101DD00002C01092F1001092F1004FC1422F50E06A
:101DE000512B913051F4811148C14130510509F016
:101DF00044C1809125038D7F0BC0933061F4811124
:101E00003CC14130510509F038C180912503826001
:101E10008093250332C1953041F48091E80080FF22
:101E2000FCCF20682093E30028C1963009F05EC003
:101E3000EB8CFC8C1092E900109223031092220389
:101E4000123091F510922103109220030E94220D6E
:101E500099E0BE016F5F7F4FDB01E92F1D92EA958C
:101E6000E9F799831A8391E09E8390EA98879AEF25
:101E700099872091220330912303275F3F4F3C83B2
:101E80002B838D831092E90010922303109222037A
:101E9000F0922103E092200349E050E080E00E94AC
:101EA000FB0C0E94220DE9C0F0922103E092200376
:101EB0000E94E70CDC011296ED90FC901397E11460
:101EC000F10409F4C7C0D701ED91FC910480F581BC
:101ED000E02D6D2D7C2DC7010995009719F00CF0B0
:101EE000CCC0CFC0F701E084F184E9CF973009F48A
:101EF000C8C0983021F481E08093F100BEC09930D1
:101F000009F0BBC0837009F0BCC0EFE2F1E081E0F2
:101F100021E036E39081992361F08093E9002093DA
:101F2000EB0091919093EC003093ED008F5F873040
:101F300089F78EE78093EA001092EA008F898093F8
:101F400028039BC08B8D9C8D1092E9001092230377
:101F5000109222039093210380932003898D811195
:101F60005FC08E899D89913A59F4813209F089C008
:101F700047E050E064E071E080E00E94FB0C7DC02F
:101F8000913209F07EC0833289F4888D90E0982FD9
:101F900088272F89822BA0E0B0E0809300019093E6
:101FA0000101A0930201B093030167C08032B1F434
:101FB0008091E80082FFFCCFE4E0F1E087E08E0F43
:101FC0008E1729F09091F10090833196F9CF84E635
:101FD0008093E9048BEF8093E80006C0823209F019
:101FE0004CC08F8980930B0180912403882319F0C2
:101FF000EEEFFAE002C0E0E0F8E080910401909199
:102000000501A0910601B0910701803B9440A10514
:10201000B10509F07AC080910B0180FF92C075C0B4
:102020000E94E70CDC0112960D911C91139701158B
:10203000110539F1D801ED91FC910190F081E02D6D
:102040006D2D7C2DC8010995811117C0F8010085FF
:102050001185EDCF113009F44EC0133091F48F8902
:10206000882309F445C0823081F440E862E18EEBB8
:1020700091E00E946912882321F08EEF8093E8009E
:1020800079C081E28093EB0075C0813029F440E88B
:1020900068E085EB91E0EDCF833099F70E94E70C83
:1020A000DC011296ED90FC9013978E010F5F1F4F8D
:1020B0006801E114F10479F0D701ED91FC910680FB
:1020C000F781E02DB801C7010995080F111DF7012F
:1020D000E084F184EECFD8011C92F601019000203B
:1020E000E9F73197BF016C197D0940E0C601C1CF06
:1020F0006FE971E002C063EA71E06115710509F2F0
:10210000FB01449150E080E838CF0FB6F894A895D1
:1021100080916000886180936000109260000FBE23
:10212000A895EE3F2AE0F20739F08091FE0A9091DF
:10213000FF0A91838083A1CF1092FF0A1092FE0ABA
:102140009CCFEE3F8AE0F80731F080819181909337
:10215000FF0A8093FE0A87E797E7918380839BE0DD
:1021600088E10FB6F894A895809360000FBE909315
:10217000600083CF6C960FB6F894DEBF0FBECDBF64
:10218000DF91CF91FF91EF91BF91AF919F918F918F
:102190007F916F915F914F913F912F911F910F917F
:1021A000FF90EF90DF90CF900F900FBE0F901F9099
:1021B0001895789484B5826084BD84B5816084BDAF
:1021C00085B5826085BD85B5816085BD80916E00D5
:1021D000816080936E001092810080918100826006
:1021E0008093810080918100816080938100809143
:1021F0008000816080938000809191008260809354
:102200009100809191008160809391008091900075
:102210008160809390008091C10084608093C100B0
:102220008091C10082608093C1008091C100816073
:102230008093C1008091C30081608093C30080912E
:10224000C00082608093C0008091C2008160809352
:10225000C20080917A00846080937A0080917A0035
:10226000826080937A0080917A008E7F80937A00DA
:1022700080917A00806880937A00109228031092EF
:102280002503109226038091D70081608093D700A8
:1022900080EA8093D80089B58F7E89BD89B5826038
:1022A00089BD09B400FEFDCF61E070E080E090E000
:1022B0000E942A0C8091D8008F7C80618093D80086
:1022C0008091E000807F8093E0008091E1008E7E2D
:1022D0008093E1008DE08093E200EEEFFFE78591CF
:1022E00094918B3F9C4D19F481E0809324031092CC
:1022F000BB031092BC031092BD031092BE03109258
:102300007B0310927C0310927D0310927E030E9447
:10231000D2026B017C014B015C0188EB880E8BE0E3
:10232000981EA11CB11C0E94D2026C157D058E0561
:102330009F0528F086169706A806B906A0F768EE4E
:1023400073E080E090E00E942A0C8FEF9FEF909363
:102350003603809335030E94D20260937B0370930F
:102360007C0380937D0390937E0389E592E00E9435
:10237000AD0D0E94D2026B017C014B015C012AE091
:10238000820E911CA11CB11C0E94D2026C157D050D
:102390008E059F0528F086169706A806B906A0F7B1
:1023A00081E080938F0361E084E00E94EE0B61E0A6
:1023B00084E00E94BE0B8FEF9FEF909336038093D3
:1023C0003503C0910B016AE070E080E090E00E946C
:1023D0002A0CC11107C061E070E080E090E00E942B
:1023E0002A0CEFCF64E670E080E090E00E942A0CB7
:1023F0008AE692E00E94AF0D60E084E00E94BE0B8E
:102400006AE070E080E090E00E942A0C61E084E0E5
:102410000E94BE0B6AE070E080E090E00E942A0C0F
:102420008FEB93E00E941608811109C080E892E0CA
:102430000E94AF0D87E992E00E94AF0DFFCF8FEDB4
:1024400092E00E94AF0D44EE66E08FEB93E00E94B5
:10245000FC0540EC67E08FEB93E00E94FC0540E058
:1024600068E08FEB93E00E94FC0583EF92E00E940E
:10247000AD0D4AE063E973E080E090E00E946C0DEE
:10248000E0912903F0912A030190F081E02D6EE2A2
:1024900089E293E009954AE060E070E0CB010E9498
:1024A0006C0D4AE060E070E0CB010E946C0D8DE0A5
:1024B00092E00E94540D67E18FEB93E00E94380692
:1024C000C0E0D0E00E94CB082097E1F30E9400001A
:1024D000F9CFCF92DF92EF92FF920F931F93CF939A
:1024E000DF931F92CDB7DEB7182F062FE42E862F6D
:1024F000880F8E5F99830E94530B83E00E94530BD9
:10250000F12EC12E9981D92E8C2D8F19801798F418
:10251000F601E7FE02C0849101C080810E94530B46
:10252000182F80E00E94530B8123FFEFCF1ADF0AA0
:102530008111EACF01C081E00F90DF91CF911F910F
:102540000F91FF90EF90DF90CF900895E9E2F3E0D4
:102550001382128288EE93E0A0E0B0E0848395833A
:10256000A683B78389E391E0918380838FEF9FEF08
:1025700095878487E9E7F3E0168217821086118633
:10258000128613861486158616861786108A118A77
:10259000128A138A148A158AAAEEB4E013961C9242
:1025A0001E92129715961C921E92149717961C92C3
:1025B0001E9216978BE491E011969C938E93EFEB0D
:1025C000F3E0138212828FEF8483828783871486DD
:1025D0001586108A1786128A118A148A138A178A16
:1025E000168AB18FA08F98E0928F2FE531E031836A
:1025F00020831092DC0497E0938F848F08958F924C
:102600009F92AF92BF92CF92DF92EF92FF92CF93C1
:10261000DF93EC01688179818A819B816115710565
:102620008105910521F464E279ED8BE597E02DE1D8
:1026300033EF41E050E00E94BB1349015A019B0176
:10264000AC01A7EAB1E40E94DA136B017C01ACEEA5
:10265000B4EFA50194010E94E813DC01CB018C0DBD
:102660009D1DAE1DBF1DB7FF03C00197A109B04856
:1026700088839983AA83BB83BC01CD019F77DF91B7
:10268000CF91FF90EF90DF90CF90BF90AF909F9051
:102690008F9008950E94FF12089586E191E00E94B4
:1026A000FF1208956093160170931701809318012B
:1026B000909319010895FB01DC0102C005900D9271
:1026C00041505040D8F70895BB274A3031F4992340
:1026D00022F4BDE2909581959F4F0C947013BB2717
:1026E000FB015527AA27880F991FAA1FA41710F0CE
:1026F000A41B83955051B9F7A05DAA3308F0A95DDA
:10270000A193009779F7B111B1931192CB010C9479
:102710008913DC01FC01672F71917723E1F7329770
:1027200004C07C916D9370836291AE17BF07C8F3AC
:102730000895A1E21A2EAA1BBB1BFD010DC0AA1F02
:10274000BB1FEE1FFF1FA217B307E407F50720F01A
:10275000A21BB30BE40BF50B661F771F881F991F95
:102760001A9469F760957095809590959B01AC01DE
:10277000BD01CF010895052E97FB1EF400940E9421
:10278000D21357FD07D00E94991307FC03D04EF4D3
:102790000C94D21350954095309521953F4F4F4F53
:1027A0005F4F089590958095709561957F4F8F4FFD
:1027B0009F4F08950E94ED13A59F900DB49F900D1B
:1027C000A49F800D911D11240895B7FF0C94DA1376
:1027D0000E94DA13821B930B0895A29FB001B39F4E
:1027E000C001A39F700D811D1124911DB29F700D1A
:1027F000811D1124911D0895EE0FFF1F0590F49186
:10280000E02D099481E090E0F8940C941014FB0101
:10281000DC0102C001900D9241505040D8F708955C
:04282000F894FFCF5A
:10282400FFFFFFFF00E1000000000000140114019D
:1028340014011401140101000000000404040D0E2D
:10284400131516191A1C232526292A2C323400C1E3
:10285400808100000000000000CC0A640C0B0BE235
:102864000AED0A0F0B2D0B0000000033012F012B82
:10287400012002170151014D014901000000001619
:10288400082907DB01A206150185017D01320363D6
:1028940003DE025C06750172016F016C016501784B
:1028A4000162015F015C0159017906564D445045AE
:1028B4005F003A323A007C005F564D445045005464
:1028C40072616E736D697474696E672E2E2E005377
:1028D400656E64696E67200053656E64696E672E69
:1028E4002E2E0057616974696E6720666F722070BE
:1028F40061636B657420746F20636F6D706C6574B5
:10290400652E2E2E0057616974696E6720666F729A
:10291400207265706C792E2E2E00476F74207265BC
:10292400706C793A2000525353493A20000D0A0042
:1029340052656365697665206661696C6564004EFD
:102944006F207265706C792C2069732074686572CD
:10295400652061206C697374656E65722061726FA5
:10296400756E643F0048656C6C6F20576F726C64C1
:10297400202320202020202000564D4450565F3133
:102984007C315F564D4450560A0046656174686553
:1029940072204C6F52612054582054657374210086
:1029A4004C6F526120726164696F20696E69742092
:1029B4006661696C656400556E636F6D6D656E74F8
:1029C400202723646566696E652053455249414C4E
:1029D4005F44454255472720696E2052485F52465E
:1029E40039352E63707020666F7220646574616976
:1029F4006C656420646562756720696E666F004C5F
:102A04006F526120726164696F20696E6974204F2E
:102A14004B2100536574204672657120746F3A200F
:022A24000000B0
:00000001FF
